:10008F00204F08B1FDB2FDB3FDB4FDB5FDB6FDB710
:10009F00FDB8FDB9FDBAFDBBFDBCFDBDFDBEFDBF8D
:1000AF00FDC0FDC1FDC2FDC3FDC4FDC5FDC6FDC73D
:1000BF00FDC8FDC9FDCAFDCBFDCCFDCDFDCEFDCFED
:1000CF00FDD0FDD1FDD2FDD3FDD4FDD5FDD6FDD89C
:0200DF00FD0022
:1000E2007B007A007908120124E4FEEEC39F5017C8
:1000F20074082EF8E6FD3395E0FCED2558F558EC32
:090102003557F5570E80E480FE2C
:03000000020003F8
:0C000300787FE4F6D8FD75815802004AB1
:10012400E4FFFE12010B600C0FEF70010E09E97081
:05013400F20A80EF2239
:10000F000200E2E493A3F8E493A34003F68001F225
:10001F0008DFF48029E493A3F85407240CC8C333F2
:10002F00C4540F4420C8834004F456800146F6DFC1
:10003F00E4800B010204081020408090008FE47EC2
:10004F00019360BCA3FF543F30E509541FFEE493B6
:10005F00A360010ECF54C025E060A840B8E493A37D
:10006F00FAE493A3F8E493A3C8C582C8CAC583CAA8
:10007F00F0A3C8C582C8CAC583CADFE9DEE780BE60
:0100E100001E
:10010B00BB010689828A83E0225002E722BBFE02F2
:09011B00E32289828A83E4932225
:00000001FF
