:10E0000002E00343B14075B55575B20DE5B620E2A7
:10E01000FB907D00E812E1E47801E612E1E308B844
:10E0200000F87800740075837E7582FF158312E115
:10E03000E3D8FB785F75837E7582FF05A290E0547C
:10E04000E49305A212E1E315A2A3D8F453B1BF757E
:10E05000A20001B3C0E0E5B620E2FBD0E053B1FC82
:10E06000C0A8C2AF02E22043B101D0A822C0E0E5BF
:10E07000B620E2FBD0E053B1FC02EB5B43B10132CE
:10E0800043B1408583B48582B3F5B575B20EE5B66C
:10E0900020E2FBE5B575B20053B1BF2243B1408524
:10E0A00083B48582B375B20B027F3A43B1019353B7
:10E0B000B1FC22E4F5CBF5CAF5CCF5CDF5C9F5C830
:10E0C00020B0FD30B0FDD2CA30B00330CFFA30B04E
:10E0D000FD30B00330CFFA30B0FDC2CA20CFD4AF8C
:10E0E000CCAECDEEC313FCEF132FFFEC3EFEEF24BE
:10E0F00010FFE43EFEEF7805CEC313CE13D8F9FF30
:10E10000C3E49FF5CAF5CCE49EF5CBF5CD75C834D4
:10E1100075985AC2983098FDE599B411F6907C71C3
:10E12000E5CB31E4E5CA31E3907C91745A31E47473
:10E130003431E3E5CB31E3E5CA31E302E55AC0000F
:10E14000C001C002C003F501858202858303E41289
:10E150007F57B501028039B4FF06E50131E4803014
:10E160005382807880E4127F57F608A3B800F680C7
:10E1700000A802430080E501F685038385028253EF
:0BE18000828051017880E631E4A308A2
:10E18B00B800F88000E501850282850383D003D0B7
:10E19B0002D001D00022FEAF82A983E493B5060220
:10E1AB008032B4FF06EE127F2C8029538280788058
:10E1BB00E493F6080582B800F78F00430080EEF673
:10E1CB008F82538280127F487880E6127F2C0582E3
:10E1DB0008B800F6EE8F8222A343B1408582B38547
:10E1EB0083B4F5B575B20EE5B620E2FB75B20053FC
:10E1FB00B1BFE5B5C32243B1408582B38583B4F586
:10E20B00B5E58375B20BE5B620E2FB75B20053B1F1
:10E21B00BFE5B5C322C2C0C0B1C0B2C0B4C0B3C0A9
:10E22B00B543B14075B38875B47CF5B575B20BE5E4
:10E23B00B620E2FB75B20EE5B620E2FB75B397D0C4
:10E24B00B575B20EE5B620E2FB75B398D0B575B2D5
:10E25B000EE5B620E2FB75B38B8583B575B20EE583
:10E26B00B620E2FB75B38C8582B575B20EE5B62090
:10E27B00E2FB907C89E4C5D031E4907C99D0E0310D
:10E28B00E4D0E031E3D0E031E3907C8AD0E054EF8E
:10E29B0012E1E4907C8DD0E031E4D0E031E3E58114
:10E2AB0031E3E5F031E3E59831E3E5C831E3E5CB64
:10E2BB0031E3E5CA31E3E5CD31E3E5CC31E3907DE4
:0CE2CB00805101907D005101E831E4A376
:10E2D7007801E631E408A3B800F875985475C83496
:10E2E70053B1BF75B200907C70E493F581907C7157
:10E2F700E493F5CBA3E493F5CA907F817801E49387
:10E30700F6A308B880F812EFCE717212ECCA12EBBE
:10E31700C012EAD412EAD412EAD412EBC0907C8D70
:10E32700E8313EA3E9313ED299227A0112ECCAAE16
:10E3370001AD0012EBFCB4012DC083C08212EBB615
:10E34700C3EE99FCED98700CBC02005007752808C5
:10E357007401800C741212EBCD747E12EBCD740332
:10E36700D082D083313E0ABA0CC9227A0B12EBFC59
:10E37700B4030D7401313E12EBB612EBC912EBC9AF
:10E38700DAEB7481D210F880047881C210907C880F
:10E39700B8E0028068A3B8D0028062A3B8A8028060
:10E3A7005CA3B883028056A3B882028050907C8F0A
:10E3B700B881028048A3B8F0028042A3B8980280CF
:10E3C7003CA3B8C8028036A3B8CB028030A3B8CA32
:10E3D70002802AA3B8CD028024A3B8CC02801EA352
:10E3E700B8B5028018A3B8B3028012A3B8B40280EC
:10E3F7000CA3B8B2028006A3B8B10B8000201003AB
:03E40700313E2281
:10E40A00E4932279E52010027988C0E0907CF0E953
:10E41A0012E96EA982E583C8A312EBE2742212EB19
:10E42A00E289828883E4D0007374E0718B852C8240
:10E43A00852B839378E061927189C006F9E52C12E5
:10E44A00E9A4E52B12E9A4E9D006619001060F01BF
:10E45A00010201010101010101010101230A130164
:10E46A000102010101010101010101012306150156
:10E47A00020201010101010101010101230A19013D
:10E48A000202010101010101010101011E0602034B
:10E49A000202010101010101010101011E0A020337
:10E4AA000202010101010101010101011E0602032B
:10E4BA000202010101010101010101011E0A0229F1
:10E4CA000203020202020202020202021E060225DE
:10E4DA00010302020202020202020202030A02010A
:10E4EA000202010101010101010101010206020109
:10E4FA00010102020202020202020202020A0201ED
:10E50A002323232323232323232323230206020152
:10E51A00010201010101010101010101020A0201D5
:10E52A00012301011E1E1E1E1E1E1E1E01060101C2
:10E53A00010201010101010101010101010A0101B7
:10E54A0001020101010101010101010156332E34C9
:10E55A00758107907C88E47807313EA3D8FB74075D
:10E56A00313EA3E4313E907C97E4313EA3313EA391
:10E57A00313EA3313EA37480313EE4F52304F524F1
:10E58A00717212EFCE12E911B4110AE52312E909E8
:10E59A00F4F52380F0B40107E52412E90980E612B4
:10E5AA00E5AE80E1F5251414540E90E919FF93CFD6
:10E5BA00A3938F83F582E473740612E909E528129E
:10E5CA00E909787C758304E612E90908D583F874A9
:10E5DA000412E90922752800F1BFF5266022F1BF6D
:10E5EA00F583F1BFF582F1BFF527F1BF12E929A33F
:10E5FA00D527F7F1BFE525600375280212E5C22287
:10E60A0075F000F1BF700205F0907C8D313EA3F1E8
:10E61A00BF700205F0313EF1BF15F015F0E5F0705C
:0BE62A001B7805907C88313EA3D8FBD4
:10E635007407907C8F313ED148D148D148D148D11B
:10E645004880B532752800F1BFF526F1BFF583F195
:10E65500BFF582F1BFF527F1BFE5256007752802F3
:10E6650012E5C2227525007402F1D0E5266010126C
:10E67500E9F2F1D0A3D527F7E4C39525F1D022908F
:10E685007C8DE493F1D0A3E493F1D080EB75280061
:10E69500F1BFF529F1BFF527F1BFF526F1BFF583E8
:10E6A500F1BFF582F1BFE5256006752802B1C222EA
:10E6B500E4B5290512EC42A1C204B5290512EC6C9A
:10E6C500A1C204B5290512EC68A1C204B529051239
:10E6D500EC70A1C212ECA1A1C2752800F1BFF52909
:10E6E500F1BFF527F1BFF526F1BFF583F1BFF5823F
:10E6F500F1BFFAF1BFF8F1BFF9F1BFE52560067585
:10E705002802B1C222E4B5290B12EDC9A298500323
:10E7150012E9112204B5290302E73E04B52908C20E
:10E725001112ED8702E73EC21212ED85201209B1E2
:10E73500C2A298500312E911227525007402F1D086
:10E745007526047583007582E012E9F2F1D07582B1
:10E75500F012E9F2F1D07582D0752A0812E9F25467
:0FE7650018F58212E9F2F1D0A3D52AF775828355
:10E7740012E9F2F1D075828212E9F2F1D0907C8D27
:10E78400E493F1D0A3E493F1D07582D012E9F2F1CD
:10E79400D0E4F1D0E4F1D0E4F1D0E4F1D075828199
:10E7A40012E9F2F582F1D075260112E9F2F1D015E1
:10E7B40082D527F6E4C39525F1D022A29850FCE532
:10E7C40099C298C0E02525F525D0E022A29950FCF5
:10E7D400C299F5992525F5252275280012E7BFF57C
:10E7E4002612E7BFF58312E7BFF58212E7BF04F5EF
:10E7F4002912E7BF04F52712E7BFF52A8006E52AA8
:10E8040012E929A3D527F7D529F412E7BFE5256036
:10E814000375280212E5C22275280012E7BFE52518
:10E82400600775280212E5C222C21112ED87907C9E
:10E834008DE493F8A3E493F9E8F57CE9F57D888306
:10E84400898275260531F2F57E12E5C2227528000B
:10E8540012E7BFF52912E7BFF52712E7BFE52560E8
:10E864000675280202E5C2E4B529065324FB02E535
:10E87400C204B5290643240402E5C204B52908E408
:10E88400F530F53102E5C2853082E5276009C3E53C
:10E89400309527F5825007E531700302E5C27525EE
:0DE8A40000740212E7D07400781412E7D05F
:10E8B100D8F9E4C3952512E7D02275280012E7BFE5
:10E8C100F52912E7BFE525600675280202E5C2E4D5
:10E8D100B52909907C7312E13E02E5C204B529090C
:10E8E100907C7312E13E02E5C2780490E55679020C
:10E8F100E493F7A309D8F9758304787C7902E7F6E4
:10E901000809D583F902E5C23099FDC299F599222A
:10E911003098FDE599C29822E5DFE649E692E6DE08
:10E92100E7DDE81CE851E8BBAF26BF01028079BFF3
:10E9310002028069BF03028066BF0402806ABF05CC
:10E941000B8000A883B87C00502F8021BF060221D4
:10E95100D9BF800280EDBF8110A883B81000401894
:10E96100FE74E028F583EE80177528FF2212E13E40
:10E97100FFE4127F57B5071222A883B8F00040F8D0
:10E9810012E1A1FFE493B5070122E528700E752875
:10E9910003A882A983E9F57EA3E8F57F22F022A8E6
:10E9A10082F2220989827F01FEE582B48000400360
:10E9B10020E712C082C083907D0051CAEE12E13E71
:10E9C100D083D08222BF010280E9C082C083F8EEE9
:10E9D10012E392D083D082221392D551BAC0E05172
:0AE9E1003C0EAF0613DFFDA2D53394
:10E9EB00DEFDFED0E080BAAF26BF01028041BF0240
:10E9FB00028031BF0302802EBF04028032BF0502AA
:10EA0B008013BF060241AFBF80028010BF8102801E
:10EA1B00107528FF22E583B4E0005005E4127F5700
:10EA2B0022E49322E022A882E2228982197F01E567
:10EA3B0082B48000400320E70DC082C083907D002C
:10EA4B0093D083D08222BF010280EEC082C083B4F8
:10EA5B00F100502AB4E1005028B4D1005026B4C1C3
:10EA6B00005024B4BA005022B4AB005020B4A30021
:10EA7B00501EB49A00501CB49100501A8021B4F768
:10EA8B0018B4E815B4D512B4C80FB4C00CB4B0099F
:10EA9B00B4A806B4A003B49800500474FF80A2126B
:10EAAB00E38B809D51BA513C0E13DEFDE43322E51E
:10EABB0082FE5407CE6E20E7050303032420222594
:10EACB0082F582E43583F583220582D58202158394
:10EADB00158222900023E493907C7512E13E900006
:10EAEB0023740212E13E907C74740112E13E90009B
:10EAFB0024E493907C7612E13E900025E493907C85
:10EB0B007712E13E900024747F12E13EA374191238
:08EB1B00E13EC322D322C2AF88
:10EB2300D299E58124F9C88683088682A3A3A3A684
:10EB33008218A683C8D0D0D083D082D0E012E64812
:10EB430002E220A29950FCC299C298907C8AE49375
:10EB5300449045A812E13E22C0A8C2AFC0E0C082E3
:10EB6300C083C0D075D000907C73E493700BD0D079
:10EB7300D083D082D0E0027F28A298400302EBA783
:10EB8300E599C298B4110302EBA7B41B17C2C012D4
:10EB9300E911D29974FF12E90912E911740012E91B
:10EBA3000902EB21C299D0D0D083D082D0E0D0A883
:10EBB300027F28A3E493F8A3E493F9A322C8C583AF
:10EBC300C8C9C582C922E4127F57FB12EBC0E41205
:10EBD3007F57CB12EBE212EBC0EB12E13EA3221202
:10EBE300E96EA322F528A882A983E527F57CE5260B
:10EBF300F57DE9F57EE8F57F22EA75F006A4907CC1
:10EC03000012EACAE493227A000A12EBFCB500026E
:10EC1300B322BA0AF422AE83AF827A0A12EBFC6003
:10EC23001B12EBB6C39FFBE89E70028009C3EF99EA
:02EC3300FBEEF6
:10EC350098C37006BB0200500122DADE2212EC19DD
:10EC45007404409E780012EC0A740550951A8A27C0
:10EC5500740112E13EA3EE12E13EA3EF12E13EE4A0
:10EC650002EBE77D0180067D0280027D00E527B489
:10EC750080127A0A12EBFC6004ED12E13EDAF5220D
:10EC8500E802EBE77807B40A0050F5FA0A12EBFC44
:10EC9500780660ECED12E13EE402EBE7E527780744
:10ECA500B40A0050DB75F006A4FF907C0693F527A7
:10ECB5000FEF93F80FEF93F90FEF93F526888389FC
:10ECC50082E402EBE7907C8D02EBB7EC90E456937F
:10ECD50054FC90ECDB7302EEC70002ED410002ED3F
:10ECE5003B0002ED360002ED300002ED1E0002EDA4
:10ECF5001A0002EEB10002EEB50002E4330074E042
:10ED050012E38BF8A3A3A3E493F9A3E49328F52CCA
:10ED1500E439F52B2212ED1E3212E389F912EA3598
:10ED2500F52B12EA35F52CE902E39020111E12E4C9
:10ED3500428D2B8E2C2220111312E442EC03C45475
:05ED450007C52B54F886
:10ED4A00452BF52B8D2C22AE2BAF2C7A0B12EBFC1C
:10ED5A0012EC55E5245404600302ED6E7A0B12E3BB
:10ED6A003302EEEF12E5C2D212C211800312EEA1F3
:10ED7A0012ED907A0A12EE8550F322D211E524544C
:10ED8A0004600312EEA112ECCA882B892C12EBC084
:10ED9A00E4127F57FCA3E4127F57FDA3E4127F57C6
:10EDAA00FEEC90E456935403FA252CF52CE4352B0B
:10EDBA00F52B12ECD0852C82852B8312E32122E5D8
:10EDCA0026600BC000C00112E321D001D00012EB73
:10EDDA00C07D00EA600512EC197D017A0B12EBFC8A
:10EDEA00ED12EC57E5245404600302EE0F12E331EE
:10EDFA00E528600D6403700912E37212E5C2D212AB
:10EE0A002212EEEF2212E5C2533A00907C73E49389
:10EE1A00700912ED8712EE8350F822A2985051120F
:10EE2A00E911F8E53A053A600B14601414601814F5
:10EE3A00601C8039B81B0122B8043212E9098030FB
:10EE4A00882612E9098029883B12E90980228882EA
:10EE5A0012E909853B83E526700D907C8DE49312B7
:10EE6A00E909A3E493800312E9F212E909533A008B
:0EEE7A0012ED8712EE8350A3227A0012ECCA2A
:10EE88000ABA0C012212EBFCB401F5A3E493B50015
:10EE9800EFA3E493B501E9B32222741212EBE274F2
:10EEA8007F12EBE2740002EBE28D067D037F00EE39
:10EEB8007E0330E7011F252CF52EEF352BF52D901D
:10EEC8007CF012E32112EBC07804E612EBE208DAD8
:10EED800F912EEA285822F12EEA212EF18B52F06B4
:10EEE800852E2C852D2B22907C73E493601D12EACD
:10EEF800DE500D12E3727464F52812E5C2D21222B4
:10EF080012E5C2D21212EB4602EF1812E5C2D21273
:10EF1800C299907C70E58112E13E907F8112E201F6
:10EF28007801E612E1E408A3B880F7907D01780142
:10EF3800E493F6A308B800F8907D00E493F8907C79
:10EF480094E493F5CA1582E493F5CB1582E493F51E
:10EF5800C81582E493F59853B1BF907C97E493F574
:10EF6800B50582E493F5B30582E493F5B40582E42C
:10EF780093F5B20582E493F5B1907C96E493F5CCD1
:10EF88001582E493F5CD907C90E493F5F01582E436
:0BEF980093F5811582E493C0E0158220
:10EFA300E493C0E0907C8AE493C0E0907C8CE4938B
:10EFB300C0E01582E493C0E015821582E4931582C4
:10EFC300F5D0E493D083D082027F13907C74E493D2
:10EFD30064017022E412E13EA39390002312E13E08
:10EFE300E4907C769390002412E13E907C77E49346
:07EFF30090002512E13E220F
:00000001FF
